:1000000091C00000ACC00000AAC00000A8C0000061
:10001000A6C00000A4C00000A2C00000A0C0000054
:100020009EC000009CC0000093C3000052C30000AB
:1000300096C0000094C0000092C0000090C0000074
:100040008EC000008CC000008AC0000088C0000084
:1000500086C0000084C0000082C0000080C0000094
:100060007EC000007CC000007AC0000078C00000A4
:1000700076C0000074C0000072C0000070C00000B4
:100080006EC000006CC000006AC0000068C00000C4
:1000900066C0000064C000001201100102000008E8
:1000A000EB03442001000102DC0109023E000201D1
:1000B00000C0320904000001020201000524001002
:1000C0000104240206052406000107058203080036
:1000D000FF09040100020A000000070504021000E5
:1000E00005070583021000050403090418034400F2
:1000F000650061006E002000430061006D00650036
:100100007200610000001C034C00550046004100D5
:1001100020004300440043002000440065006D00BF
:100120006F00000011241FBECFEFD0E2DEBFCDBFB5
:1001300011E0A0E0B1E0E4EDFFE000E00BBF02C0A1
:1001400007900D92AE36B107D9F711E0AEE6B1E0F7
:1001500001C01D92AC38B107E1F785D039C750CF47
:100160008BB18F70806A8BB908958BB18F7080616D
:100170008BB9089582E591E02CC682E591E002D624
:1001800080FD02C090E901C090E68BB18F70982B82
:100190009BB9089523B18CB1809590E080739070E5
:1001A000959587952095207E282B27FD17C024FF45
:1001B00003C020E031E014C026FF03C020E131E09D
:1001C0000FC023FF03C020E231E00AC025FF03C0B7
:1001D00021E331E005C010927001089524E431E07C
:1001E000809170018823B1F481E080937001809147
:1001F0006E0190916F01019690936F0180936E0153
:10020000019760E177E292D6892B21F4C90161E779
:1002100071E0B3C6089584B7877F84BF88E10FB6C5
:10022000F89480936000109260000FBE80E090E030
:1002300020E80FB6F89420936100809361000FBE10
:1002400084B18F7184B98DB18F7C8DB985B1806E89
:1002500085B98EB180638EB98AB1806F8AB98BB14E
:100260008F708BB91BC2D7DF82E591E061E771E047
:10027000EED48BB18F7080618BB978948BDF82E57F
:1002800091E0B3D482E591E030D59AD4F7CFDA018A
:10029000923049F0933061F09130F9F4E8E9F0E000
:1002A00022E130E01EC0EAEAF0E02EE330E019C0BF
:1002B000813049F0813018F0823079F408C0E8EEDE
:1002C000F0E0849107C0ECEEF0E0849103C0E6E03A
:1002D000F1E08491282F30E004C0E0E0F0E020E07D
:1002E00030E0ED93FC93C90108959C0140918A018F
:1002F00050918B014617570718F4F90190E03DC063
:100300006115710511F0AB01F8CF8091E8008E778F
:100310008093E80040E050E0F0CF80918301882393
:1003200009F441C0853009F440C08091E80083FDA4
:100330003EC08091E80082FD30C08091E80080FFDF
:100340001CC02091F2003091F30007C0819180938E
:10035000F100415050402F5F3F4F4115510519F0BA
:100360002830310598F390E02830310509F491E008
:100370008091E8008E778093E8004115510569F679
:10038000992359F60AC080918301882361F0853052
:1003900061F08091E80083FD0AC08091E80082FF4F
:1003A000F2CF80E0089582E0089583E0089581E02F
:1003B00008959C0140918A0150918B01461757077F
:1003C00018F4F90190E03EC06115710511F0AB0120
:1003D000F8CF8091E8008E778093E80040E050E00D
:1003E000F0CF80918301882309F442C0853009F45D
:1003F00041C08091E80083FD3FC08091E80082FD0C
:1004000031C08091E80080FF1DC02091F200309142
:10041000F30008C084918093F10031964150504020
:100420002F5F3F4F4115510519F02830310590F3EA
:1004300090E02830310509F491E08091E8008E7752
:100440008093E8004115510561F6992351F60AC0E1
:1004500080918301882361F0853061F08091E8000C
:1004600083FD0AC08091E80082FFF2CF80E008950A
:1004700082E0089583E0089581E00895382F282FC1
:100480002EC0822F8F708093E900231721F4762FDE
:10049000942F50E006C07091EC009091ED005091C7
:1004A000F00091FF1BC08091EB008E7F8093EB00EA
:1004B0008091ED008D7F8093ED008091EB00816055
:1004C0008093EB007093EC009093ED005093F0005C
:1004D0008091EE0087FD02C080E008952F5F2730F5
:1004E00080F23F703093E90081E008950F931F93ED
:1004F000CF93DF93062FEC0110E02AC09881992357
:1005000029F16B81E981FA812C81892F8F708730E5
:1005100018F5223010F452E001C056E040E028E027
:1005200030E003C04F5F220F331F2E173F07D0F379
:100530006295660F660F607C991F9927991F692B3A
:100540004295407F452B9ADF882331F01F5F259627
:100550001017A0F281E001C080E0DF91CF911F91E0
:100560000F9108958091840188239CF404C08091A8
:1005700083018823B9F08091E80082FFF8CF809151
:10058000E8008B778093E8000895809183018823A9
:1005900049F08091E80080FFF8CF8091E8008E77E5
:1005A0008093E80008954091E4005091E50024E62E
:1005B0008091EC0080FF24C08091E80080FD1EC087
:1005C00080918301882311F482E00895853011F42D
:1005D00083E008958091EB0085FF02C081E00895DB
:1005E0008091E4009091E5008417950709F3222398
:1005F00011F484E008952150AC01DACF80E0089531
:100600008091E80082FFDCCFF9CFEF92FF920F9349
:100610001F9352D059D008ED10E0F80180818F77F8
:10062000808380818068808380818F7D8083E7EDF7
:10063000F0E080818068808319BC10928301109261
:100640007F01109281011092800180EEE82EF12C42
:10065000F70180818B7F8083F801808181608083B6
:1006600080E060E042E00ADFE1EEF0E080818E7F32
:100670008083E2EEF0E08081816080838081886009
:100680008083F70180818E7F8083F8018081806183
:1006900080831F910F91FF90EF900895E8EDF0E0B7
:1006A00080818F7E8083E7EDF0E0808181608083B0
:1006B00081E080938201A9CFE8EDF0E080818C7F1A
:1006C00080831092E20008951092DA001092E10007
:1006D00008951F920F920FB60F920BB60F9211242E
:1006E0001F932F933F934F935F936F937F938F93BA
:1006F0009F93AF93BF93EF93FF931091E900809185
:10070000EC001092E9008091F000877F8093F00068
:100710007894EDD01092E9008091F0008860809389
:10072000F0001F701093E900FF91EF91BF91AF911E
:100730009F918F917F916F915F914F913F912F91F9
:100740001F910F900BBE0F900FBE0F901F9018952A
:100750001F920F920FB60F920BB60F9211242F9388
:100760003F934F935F936F937F938F939F93AF9339
:10077000BF93EF93FF938091E10082FF0AC08091C5
:10078000E20082FF06C08091E1008B7F8093E10050
:1007900016D28091DA0080FF1DC08091D80080FFC2
:1007A00019C08091DA008E7F8093DA008091D900A1
:1007B00080FF0CC084E189BD86E189BD09B400FEDB
:1007C000FDCF81E080938301CBDC04C019BC109283
:1007D0008301CBDC8091E10080FF18C08091E200B2
:1007E00080FF14C08091E2008E7F8093E2008091B0
:1007F000E20080618093E2008091D8008062809363
:10080000D80019BC85E080938301D9D18091E100A3
:1008100084FF2FC08091E20084FF2BC084E189BD5A
:1008200086E189BD09B400FEFDCF8091D8008F7D9F
:100830008093D8008091E1008F7E8093E1008091C9
:10084000E2008F7E8093E2008091E20081608093DD
:10085000E20080917F01882311F084E007C080913D
:10086000E30087FD02C081E001C083E08093830143
:10087000A6D18091E10083FF27C08091E20083FF31
:1008800023C08091E100877F8093E10082E0809324
:10089000830110927F018091E1008E7F8093E100BF
:1008A0008091E2008E7F8093E2008091E20080617F
:1008B0008093E20080E060E042E0E0DD8091F000C3
:1008C00088608093F0007BD1FF91EF91BF91AF9151
:1008D0009F918F917F916F915F914F913F912F9158
:1008E0000F900BBE0F900FBE0F901F9018951F9387
:1008F000DF93CF93CDB7DEB7AC970FB6F894DEBFDA
:100900000FBECDBFE4E8F1E08091F100819321E0DA
:10091000EC38F207C9F72EDC8091E80083FF37C17D
:100920008091840130918501353009F487C03630DB
:1009300040F43130C9F1313070F0333009F027C163
:1009400033C0383009F4F5C0393009F404C1363009
:1009500009F01DC196C0803821F0823809F017C116
:1009600008C09091800180918101882399F0926064
:1009700011C0809188018F708093E9008091EB0015
:1009800090E025E0969587952A95E1F7982F91704C
:100990001092E9008091E800877F8093E8009093AF
:1009A000F1001092F100D0C0882319F0823009F0D4
:1009B000EEC090E08F719070009721F0029709F0DF
:1009C000E6C00CC080918601813009F0E0C0109231
:1009D0008101333069F5809381012AC080918601BD
:1009E000882331F5209188012F7009F4D0C020931D
:1009F000E9008091EB0080FF1BC0333021F480912F
:100A0000EB00806213C08091EB0080618093EB006B
:100A100081E090E002C0880F991F2A95E2F7809349
:100A2000EA001092EA008091EB0088608093EB006E
:100A30001092E9008091E800877F89C0882309F03F
:100A4000A6C0109186011F778091E3008078812BEA
:100A50008093E3008091E800877F8093E80082DD47
:100A60008091E80080FFFCCF8091E3008068809354
:100A7000E300112311F482E001C083E0809383013D
:100A800086C08058823008F082C0809186019091A3
:100A9000870123E08C3D920709F033C083E08C830B
:100AA0008AE28B837FB7F894DE0115966EE040E012
:100AB00050E011E2E62FF0E010935700849140FFE0
:100AC00003C082958F706F5F8F70282F30E08A305F
:100AD00018F0C901C79602C0C901C0968D939D93B5
:100AE0004F5F5F4F4431510529F77FBF8091E80088
:100AF000877F8093E800CE0103966AE270E0F5DB21
:100B000012C060918801AE014F5F5F4FC0DBBC0136
:100B1000009709F43CC08091E800877F8093E8004B
:100B200089819A8146DC8091E8008B778093E80088
:100B30002EC0803861F58091E800877F8093E800BF
:100B400080917F018093F1008091E8008E778093FF
:100B5000E80008DD1CC08823D1F490918601923012
:100B6000B0F48091E800877F8093E80090937F0144
:100B7000F9DC80917F01882331F48091E30087FDC7
:100B800002C081E001C084E080938301F6DA8091A5
:100B9000E80083FF0AC08091E800877F8093E80027
:100BA0008091EB0080628093EB00AC960FB6F894D6
:100BB000DEBF0FBECDBFCF91DF911F910895089585
:100BC0001F9380918301882371F01091E900809137
:100BD000EC001092E9008091E80083FF01C087DEFD
:100BE0001F701093E9001F910895FC01809183010B
:100BF000843049F584899589A689B7890097A1052C
:100C0000B10509F186818F708093E9008091E80039
:100C100082FF19C08091F2009091F300892B19F4A2
:100C20002FEF3FEF04C08091F100282F30E080913A
:100C3000F2009091F300892B41F48091E8008B77CA
:100C40008093E80002C02FEF3FEFC9010895FB0138
:100C50002EE0DB011D922A95E9F723E0238323EBA5
:100C600036E0318720872AE336E03387228795876D
:100C700084870895FC0184859585B7DF9C0197FFE3
:100C800002C02EEF3FEFC90108950895FC01809145
:100C90008301843029F584899589A689B7890097CD
:100CA000A105B105E9F081818F708093E900809101
:100CB000F2009091F300892BA9F09091E8008091C7
:100CC000E8008E778093E80095FD0CC06CDC982FCF
:100CD000882349F48091E8008E778093E80003C070
:100CE00092E001C090E0892F0895FC01809183017A
:100CF000843091F484899589A689B7890097A105E4
:100D0000B10551F081818F708093E9008091E800F6
:100D100080FF02C0CF01BACF08951F93FC01162FA8
:100D2000809183018430E1F484899589A689B7890B
:100D30000097A105B105A1F081818F708093E90032
:100D40008091E80085FD08C08091E8008E7780934F
:100D5000E80029DC882329F41093F10080E001C029
:100D600082E01F910895282FFB0184859585622FCD
:100D7000D4DF882319F420E030E002C02FEF3FEFEA
:100D8000C9010895CF93DF93EC014096FC018BE0FD
:100D9000DF011D928A95E9F782E08C83898783E0E1
:100DA0008E87CE01019661E0A1DB882371F0CE0130
:100DB000069661E09BDB882341F0CE010B9661E053
:100DC00095DB882319F081E001C080E0DF91CF91AD
:100DD0000895CF93DF93EC018091E80083FFA3C0D7
:100DE000888190E020918801309189012817390786
:100DF00009F099C080918501813269F0823220F436
:100E0000803209F090C03CC0823209F46BC083325A
:100E100009F089C07AC080918401813A09F083C0C9
:100E20008091E800877F8093E8008091E80080FF50
:100E3000FCCF8C899D89AE89BF898093F100292FD1
:100E40003A2F4B2F55272093F1009D01442755271A
:100E50002093F1008B2F9927AA27BB278093F100BD
:100E6000888D8093F100898D8093F1008A8D809325
:100E7000F1008091E8008E778093E80073DB53C027
:100E800080918401813209F04EC08091E800877F13
:100E90008093E80005C080918301882309F443C052
:100EA0008091E80082FFF7CF8091F1009091F100EE
:100EB0002091F1003091F1008C8B9D8B2E8B3F8B1C
:100EC0008091F100888F8091F100898F8091F100ED
:100ED0008A8F8091E8008B778093E80043DBCE0116
:100EE000D4DE21C0809184018132E9F48091E80050
:100EF000877F8093E80036DB80918601909187019F
:100F0000998B888BCE01C1DE0EC080918401813225
:100F100051F48091E800877F8093E80023DBCE01C5
:100F200060918601B2DEDF91CF91089597FB092E83
:100F300007260AD077FD04D00CD006D000201AF482
:100F4000709561957F4F0895F6F7909581959F4F25
:100F50000895AA1BBB1B51E107C0AA1FBB1FA61700
:100F6000B70710F0A61BB70B881F991F5A95A9F752
:100F700080959095BC01CD010895EF92FF920F935B
:100F80001F93CF93DF937C018B01DB0113968C9130
:100F900081FD03C0CFEFDFEF13C0C0E0D0E00BC096
:100FA000D8011896ED91FC911997B8010995892BF4
:100FB00011F0CFEFDFEFF70181917F01882381F7F7
:100FC000CE01DF91CF911F910F91FF90EF90089587
:040FD000F894FFCFC3
:100FD4004A6F79737469636B20446F776E0D0A00EE
:100FE4004A6F79737469636B204C6566740D0A00EB
:100FF4004A6F79737469636B2052696768740D0A68
:10100400004A6F79737469636B20507265737365FA
:10101400640D0A004A6F79737469636B2055700D0F
:101024000A0000831000000104100000018208007F
:0E1034000001000000000000000000000000AD
:00000001FF
